:100000000C9475000C9492000C9492000C94920045
:100010000C9492000C9492000C9492000C94920018
:100020000C9492000C9492000C94A3000C949200F7
:100030000C9492000C9494000C9492000C949200F6
:100040000C9492000C9492000C9436020C94FC01D7
:100050000C9492000C9492000C9492000C949200D8
:100060000C9492000C94920043616C63756C617403
:1000700065642044697374616E63653A2025642069
:10008000636D0A0D004E6F206563686F20646574B0
:1000900065637465642120436865636B20776972CA
:1000A000696E67206F722073656E736F722E0A0D12
:1000B000005261772054696D65722056616C7565D8
:1000C000733A204543484F48696768203D202564BE
:1000D0002C204543484F4C6F77203D2025640A0D66
:1000E0000048656C6C6F0A0A0D0011241FBECFEF2B
:1000F000D8E0DEBFCDBF11E0A0E0B1E0E0E6FBE07C
:1001000002C005900D92A031B107D9F721E0A0E11E
:10011000B1E001C01D92A13AB207E1F70E943D0192
:100120000C94AE050C9400001F920F920FB60F9224
:1001300011248F938FEF809312018F910F900FBE38
:100140000F901F9018951F920F920FB60F921124C7
:100150008F939F938091810086FF0BC080918100D7
:10016000826080938100809181008F7B80938100E9
:1001700012C0809184009091850090931401809327
:1001800013018091100190911101909316018093B9
:100190001501109212019F918F910F900FBE0F9039
:1001A0001F901895CF93DF9300D0CDB7DEB71A829A
:1001B00019829C01220F331F820F931F29813A81DC
:1001C0002817390740F4000029813A812F5F3F4FFB
:1001D0003A832983F3CF0F900F90DF91CF91089549
:1001E0008091120181112EC081E080931201529AF8
:1001F00053985A9882E090E00E94D2005A9A8AE07E
:1002000090E00E94D2005A981092850010928400CB
:10021000109211011092100184E797E290938B00E5
:1002200080938A008CE090E090938900809388000E
:100230008FEF86BB109280008AE08093810082E07D
:1002400080936F0008958091150190911601892B7C
:1002500031F48091130190911401892B59F0809110
:10026000150190911601809113019091140180E085
:1002700090E0089587EE93E00895CF93DF9300D048
:1002800000D0CDB7DEB787E690E00E94D601789423
:1002900081EE90E09F938F93809101018F938091E5
:1002A00000018F930E94CB02219A299A0F900F9000
:1002B0000F900F9001EB10E088E6E82E80E0F82E1A
:1002C00095E8C92E90E0D92E0E94F000809112018D
:1002D0008130E1F3209113013091140180911501D7
:1002E000909116013F932F939F938F931F930F939A
:1002F000809101018F93809100018F930E94CB0226
:1003000080911501909116010FB6F894DEBF0FBED3
:10031000CDBF892BA9F48091130190911401892BF1
:1003200079F4DF92CF92809101018F938091000147
:100330008F930E94CB020F900F900F900F901CC0D4
:100340000E9423015C01BF928F93FF92EF928091F4
:1003500001018F93809100018F930E94CB020F9037
:100360000F900F900F900F900F9036E0A316B104EE
:1003700010F4299801C0299A19821A821B821C82C2
:1003800089819A81AB81BC81803A9648A140B105B0
:100390000CF09ACF89819A81AB81BC810196A11D15
:1003A000B11D89839A83AB83BC83EACF9F779093F7
:1003B000C5008093C40088E98093C1008EE08093DB
:1003C000C200519A50988DE591E090931C01809362
:1003D0001B0190939F0180939E018DE191E090938A
:1003E00018018093170190931A01809319011092BC
:1003F000A00110929D0108951F920F920FB60F92C7
:1004000011242F938F939F93EF93FF938091A001DB
:10041000882311F1E0911B01F0911C0180818093F0
:10042000C60080911B0190911C01019621E08D393D
:10043000920710F08DE591E090931C0180931B01D1
:100440008091A00181508093A001811105C080910D
:10045000C1008F7D8093C100FF91EF919F918F919B
:100460002F910F900FBE0F901F9018951F920F9213
:100470000FB60F9211242F938F939F93EF93FF93B7
:100480008091C600E0911901F0911A01808380915A
:100490009D018F5F80939D018091190190911A01B8
:1004A000019621E08D35920710F08DE191E0909357
:1004B0001A0180931901FF91EF919F918F912F91D4
:1004C0000F900FBE0F901F90189580919D0188236B
:1004D000E1F0F89480919D01815080939D01E0911D
:1004E0001701F0911801819191E0ED35F90728F499
:1004F000F0931801E093170106C02DE131E030932D
:100500001801209317017894089580E00895809150
:100510009D018823E1F30E94650290E00895909187
:10052000A001903410F5F8949091A0019F5F9093F2
:10053000A001E0919E01F0919F01808380919E0136
:1005400090919F01019621E08D39920710F08DE581
:1005500091E090939F0180939E018091C100806201
:100560008093C100789481E0089580E0089590918F
:10057000A00181E0903408F480E00895CF93C82F63
:100580000E94B7028130E1F38C2F0E948F0280E03D
:1005900090E0CF910895A0E0B0E0E1EDF2E00C949E
:1005A00085050F811885F801838188608383AE01FA
:1005B000455F5F4F69857A85C8010E94E602F801B0
:1005C0002381277F2383E4E00C94A105ABE0B0E016
:1005D000ECEEF2E00C9477056C017B018A01FC01E2
:1005E00017821682838181FFCCC1CE0101963C0126
:1005F000F6019381F70193FD859193FF81917F012E
:10060000882309F4BAC1853239F493FD859193FFAB
:1006100081917F01853229F4B60190E00E94DD04CA
:10062000E7CF912C212C312CFFE1F315D8F08B3240
:1006300079F038F4803279F08332A1F4232D2061EF
:100640001DC08D3261F0803369F4232D216016C006
:10065000832D8260382EE32DE4603E2E2AC0F32DD8
:10066000F8601DC037FC2DC020ED280F2A3040F067
:100670008E32B9F436FC81C1232D2064322E19C08C
:1006800036FE06C08AE0989E200D1124922E11C0DD
:10069000EAE02E9E200D1124222EF32DF0623F2E33
:1006A00008C08C3621F4832D8068382E02C088362D
:1006B00041F4F70193FD859193FF81917F018111B1
:1006C000B3CF982F9F7D9554933028F40C5F1F4F24
:1006D0009FE399830DC0833631F0833771F0833502
:1006E00009F059C021C0F801808189830E5F1F4F36
:1006F00088248394912C530113C02801F2E04F0EFB
:10070000511CF801A080B18036FE03C0692D70E055
:1007100002C06FEF7FEFC5010E94D2044C0182013D
:10072000F32DFF773F2E16C0280122E0420E511C08
:10073000F801A080B18036FE03C0692D70E002C0D0
:100740006FEF7FEFC5010E94C7044C01F32DF068E5
:100750003F2E820133FC1BC0822D90E08816990643
:10076000B0F4B60180E290E00E94DD042A94F4CF58
:10077000F50137FC859137FE81915F01B60190E06C
:100780000E94DD0421102A9421E0821A910881142C
:10079000910471F7E8C0843611F0893641F5F8010B
:1007A00037FE07C060817181828193810C5F1F4F8A
:1007B00008C060817181072E000C880B990B0E5FB9
:1007C0001F4FF32DFF763F2E97FF09C09095809520
:1007D000709561957F4F8F4F9F4FF0683F2E2AE0B5
:1007E00030E0A3010E941905882E861845C0853780
:1007F00031F4232D2F7EB22E2AE030E025C0932D38
:10080000997FB92E8F36C1F018F4883579F0B5C0CC
:10081000803719F0883721F0B0C0E92FE061BE2E93
:10082000B4FE0DC0FB2DF460BF2E09C034FE0AC01B
:10083000292F2660B22E06C028E030E005C020E156
:1008400030E002C020E132E0F801B7FE07C060816D
:100850007181828193810C5F1F4F06C0608171811D
:1008600080E090E00E5F1F4FA3010E941905882EC3
:100870008618FB2DFF773F2E36FE0DC0232D2E7FD1
:10088000A22E891458F434FE0BC032FC09C0832D0B
:100890008E7EA82E05C0B82CA32C03C0B82C01C096
:1008A000B92CA4FE0FC0FE01E80DF11D808180333C
:1008B00021F49A2D997EA92E09C0A2FE06C0B394F8
:1008C000B39404C08A2D867809F0B394A3FC11C0B8
:1008D000A0FE06C0B21488F4280C922C9B180EC0FF
:1008E000B21460F4B60180E290E00E94DD04B3949B
:1008F000F7CFB21418F42B1802C0982C212CA4FEA8
:1009000010C0B60180E390E00E94DD04A2FE17C093
:10091000A1FC03C088E790E002C088E590E0B60142
:100920000CC08A2D867859F0A1FE02C08BE201C06E
:1009300080E2A7FC8DE2B60190E00E94DD048914FC
:1009400038F4B60180E390E00E94DD049A94F7CF7A
:100950008A94F301E80DF11D8081B60190E00E94B8
:10096000DD048110F5CF222009F442CEB60180E2E9
:1009700090E00E94DD042A94F6CFF60186819781EB
:1009800002C08FEF9FEF2B96E2E10C949305FC01E0
:100990000590615070400110D8F7809590958E0FAA
:1009A0009F1F0895FC016150704001900110D8F71D
:1009B000809590958E0F9F1F08950F931F93CF934F
:1009C000DF93FB01238121FD03C08FEF9FEF2CC03C
:1009D00022FF16C046815781248135814217530773
:1009E00044F4A081B1819D012F5F3F4F318320836B
:1009F0008C93268137812F5F3F4F3783268314C026
:100A00008B01EC01FB010084F185E02D0995892B18
:100A1000E1F6D80116968D919C911797019617963D
:100A20009C938E931697CE01DF91CF911F910F91DA
:100A30000895FA01AA27283051F1203181F1E89474
:100A40006F936E7F6E5F7F4F8F4F9F4FAF4FB1E0C1
:100A50003ED0B4E03CD0670F781F891F9A1FA11DBC
:100A6000680F791F8A1F911DA11D6A0F711D811DBD
:100A7000911DA11D20D009F468943F912AE0269F82
:100A800011243019305D3193DEF6CF010895462FE1
:100A90004770405D4193B3E00FD0C9F7F6CF462FC2
:100AA0004F70405D4A3318F0495D31FD405241932B
:100AB00002D0A9F7EACFB4E0A695979587957795E8
:100AC0006795BA95C9F700976105710508959B016F
:100AD000AC010A2E06945795479537952795BA95F8
:100AE000C9F7620F731F841F951FA01D08952F92D1
:100AF0003F924F925F926F927F928F929F92AF92AE
:100B0000BF92CF92DF92EF92FF920F931F93CF93FA
:100B1000DF93CDB7DEB7CA1BDB0B0FB6F894DEBF91
:100B20000FBECDBF09942A88398848885F846E84B7
:100B30007D848C849B84AA84B984C884DF80EE8001
:100B4000FD800C811B81AA81B981CE0FD11D0FB60A
:100B5000F894DEBF0FBECDBFED010895F894FFCF2E
:100B600002010000000300000000BE028702000036
:00000001FF
