S01400004D6F74696F6E53656E736F722E7372656320
S11300000C9435010C9452010C9452010C9452013D
S11300100C9452010C9452010C9452010C94520110
S11300200C9452010C9452010C9478010C94AA0182
S11300300C94BD010C9454010C942B020C945201A9
S11300400C9452010C9452010C94F9040C94BA04CB
S11300500C9452010C9452010C9452010C945201D0
S11300600C9452010C945201496E76616C696420BF
S1130070636F6D6D616E6421205072657373202708
S11300805427206F722027742720746F207472699C
S1130090676765722E0A0D0044697374616E636547
S11300A020697320746F6F20636C6F736520746FA5
S11300B02074686520646F6F722E20446F6F722005
S11300C077696C6C2072656D61696E20636C6F7307
S11300D065642E0A0D0043616C63756C617465641C
S11300E02044697374616E63653A20256420636DEE
S11300F00A0D0044697374616E6365206973206F2F
S11301007665722074686520313030636D207468C0
S1130110726573686F6C642E20446F6F7220776908
S11301206C6C2072656D61696E20636C6F736564BD
S11301302E0A0D000A0D004E6F206563686F20645F
S1130140657465637465642120436865636B207717
S11301506972696E67206F722073656E736F722E99
S11301600A0D005261772054696D65722056616CE6
S11301707565733A204543484F48696768203D20B8
S113018025642C204543484F4C6F77203D2025643F
S11301902C204D4950203D2025640A0D00547269DD
S11301A067676572696E672053656E736F722E2E72
S11301B02E0A0D000A0D000A53797374656D2052DE
S11301C0656164792E20507265737320275427204B
S11301D06F722027742720746F20747269676765B3
S11301E0722073656E736F722E0A0D0054657374FA
S11301F0696E6720737065616B65722E2E2E0A0D11
S11302000054657374696E6720726564204C4544BC
S11302102E2E2E0A0D0054657374696E67206F725A
S1130220616E6765204C45442E2E2E0A0D005465E0
S11302307374696E6720677265656E204C45442E41
S11302402E2E0A0D00496E6974696174696E672007
S113025073797374656D2E20506C656173652077B6
S11302606169742E2E2E0A0A0D0011241FBECFEFD1
S1130270D8E0DEBFCDBF11E0A0E0B1E0E8E9F3E1F2
S113028002C005900D92A031B107D9F721E0A0E199
S1130290B1E001C01D92A23AB207E1F70E943A020E
S11302A00C94CA090C9400001F920F920FB60F927F
S11302B011248F939F9380911101909112010297C1
S11302C038F010926F00109281008FEF8093130129
S11302D080911101909112010196909312018093E3
S11302E011019F918F910F900FBE0F901F90189541
S11302F01F920F920FB60F9211248F939F93EF9337
S1130300FF938091810086FF09C0E1E8F0E08081DD
S11303108260808380818F7B808313C0809184007E
S1130320909185009093150180931401809111019F
S113033090911201909317018093160184E08093A9
S11303406F00FF91EF919F918F910F900FBE0F90CF
S11303501F9018951F920F920FB60F9211248F932E
S11303605F9881E280936F0080E4809381008F9195
S11303700F900FBE0F901F9018951F920F920FB6FB
S11303800F92112410926F001092810010921301A9
S11303900F900FBE0F901F9018958091130181113B
S11303A01BC081E080931301579A50985F985F9A1D
S11303B0109285001092840084E190E0909389006B
S11303C0809388008FEF86BB109280008AE0809330
S11303D0810082E080936F000895809116019091CE
S11303E01701892B31F48091140190911501892B07
S11303F031F160911601709117012091140130912F
S11304001501CB01A0E0B0E0DC0199278827BC01ED
S1130410CD01620F731F811D911D0E94CC0520E048
S113042030E040E05FE30E9430060E949B052AE32F
S113043030E040E050E00E94C506C901089587EE0F
S113044093E0089582E084BD95E095BD9CE997BD55
S113045080936E0008951F920F920FB60F9211248D
S11304608F9381E0809310018F910F900FBE0F90B6
S11304701F9018952F923F924F925F926F927F92A6
S11304808F929F92AF92BF92CF92DF92EF92FF92A0
S11304900F931F93CF93DF9387E690E00E94940419
S11304A0789485E492E09F938F93809101018F93D8
S11304B0809100018F930E94E7062FEF37EA41E60F
S11304C0215030404040E1F700C000008EE292E04D
S11304D09F938F93809101018F93809100018F935B
S11304E00E94E706219A299A8FEF97EA21E6815024
S11304F090402040E1F700C0000029983FEF4EE90A
S113050084E2315040408040E1F700C0000086E1C1
S113051092E09F938F93809101018F9380910001CA
S11305208F930E94E706229A2A9A9FEF27EA31E6E0
S1130530915020403040E1F700C000002A984FEF6E
S11305408EE994E2415080409040E1F700C0000001
S113055081E092E09F938F93809101018F9380912A
S113056000018F930E94E706239A2B9A2FEF37EA14
S113057041E6215030404040E1F700C000002B9894
S11305808FEF9EE924E2815090402040E1F700C0C3
S113059000008CEE91E09F938F93809101018F93E3
S11305A0809100018F930E94E706249A2C9A3FEFD2
S11305B047EA81E6315040408040E1F700C0000046
S11305C02C989FEF23ED30E3915020403040E1F729
S11305D000C00000299A4FEF89E698E1415080401D
S11305E09040E1F700C0000029982FEF39E648E178
S11305F0215030404040E1F700C00000299A8FEFBD
S113060099E628E1815090402040E1F700C00000C5
S113061029983FEF49E688E1315040408040E1F7B6
S113062000C00000299A9FEF29E638E1915020404C
S11306303040E1F700C0000029984FEF89E698E1C7
S1130640415080409040E1F700C00000299A2FEF0C
S113065039E648E1215030404040E1F700C0000055
S113066029988FEF99E628E1815090402040E1F7E6
S113067000C00000299A3FEF49E688E1315040402C
S11306808040E1F700C0000029989FEF23ED30E39C
S1130690915020403040E1F700C0000087EB91E02A
S11306A09F938F93809101018F93809100018F9389
S11306B00E94E7062A9A0E94220229988DB79EB7C3
S11306C048960FB6F8949EBF0FBE8DBF0F2EFDE95E
S11306D0CF2EF1E0DF2EF02D0F2EF3E6EF2EF1E01A
S11306E0FF2EF02D0F2EF6EDAF2EF0E0BF2EF02DE5
S11306F00F2EF8E92F2EF0E03F2EF02D0F2EF3EF02
S11307008F2EF0E09F2EF02D0F2EF7E36F2EF1E0E9
S11307107F2EF02D0F2EF4E34F2EF1E05F2EF02DFF
S113072008E610E0C4EBD1E00E9484058823E1F3DD
S11307300E942D058435E1F030F48D3051F082347F
S113074009F4DDC0CAC0823609F4D9C0843781F007
S1130750C4C0DF93CF93809101018F9380910001F6
S11307608F930E94E7060F900F900F900F90DCCFAD
S1130770DF92CF92809101018F93809100018F933A
S11307800E94E7060E94CD010F900F900F900F90EA
S1130790809113018130E1F3409113012091140100
S11307A03091150180911601909117011F924F937A
S11307B03F932F939F938F93FF92EF928091010128
S11307C08F93809100018F930E94E7068091160118
S11307D0909117012DB73EB7265F3F4F0FB6F8949F
S11307E03EBF0FBE2DBF892B31F58091140190912E
S11307F01501892B01F57F926F92809101018F93EE
S1130800809100018F930E94E7062B9A29982A98D9
S11308105F924F92809101018F93809100018F9399
S11308200E94E7068DB79EB708960FB6F8949EBF50
S11308300FBE8DBF79CF0E94ED0185369105A8F0DA
S11308409F928F92809101018F93809100018F93E9
S11308500E94E7062A9A29982B982C980E94ED0169
S11308600F900F900F900F905FCF9F938F93BF9235
S1130870AF92809101018F93809100018F930E9428
S1130880E7062B982A98299A2C9A0E94ED012FEFBB
S113089039E648E1215030404040E1F700C0000013
S11308A02C980F900F900F900F900F900F9002972D
S11308B090F43F922F92809101018F9380910001D7
S11308C08F930E94E70629982B9A2C980F900F90EB
S11308D00F900F9029CF299A27CF1F930F938091C0
S11308E001018F93809100018F930E94E7062B9A58
S11308F029982A980F900F900F900F9015CF80E0B1
S113090090E0DF91CF911F910F91FF90EF90DF90D6
S1130910CF90BF90AF909F908F907F906F905F909B
S11309204F903F902F9008959F779093C5008093A8
S1130930C40088E98093C1008EE08093C200519A7C
S113094050988EE591E090931D0180931C01909343
S1130950A00180939F018EE191E09093190180930F
S1130960180190931B0180931A011092A101109217
S11309709E0108951F920F920FB60F9211242F9388
S11309808F939F93EF93FF938091A101882339F173
S1130990E0911C01F0911D0180818093C60080913B
S11309A01C0190911D01019621E08E39920728F4D3
S11309B090931D0180931C0106C08EE591E09093F5
S11309C01D0180931C018091A10181508093A1019C
S11309D0811105C0E1ECF0E080818F7D8083FF917F
S11309E0EF919F918F912F910F900FBE0F901F90B9
S11309F018951F920F920FB60F9211242F938F9375
S1130A009F93EF93FF938091C600E0911A01F091B8
S1130A101B01808380919E018F5F80939E01809152
S1130A201A0190911B01019621E08E35920728F45A
S1130A3090931B0180931A0106C08EE191E090937C
S1130A401B0180931A01FF91EF919F918F912F9138
S1130A500F900FBE0F901F90189580919E018823D0
S1130A60E1F0F89480919E01815080939E01E09181
S1130A701801F0911901819191E0EE35F90728F4FC
S1130A80F0931901E093180106C02EE131E0309390
S1130A901901209318017894089580E008958091B5
S1130AA09E018823E1F30E942D0590E00895909122
S1130AB0A101903438F5F8949091A1019F5F90932F
S1130AC0A101E0919F01F091A001808380919F0199
S1130AD09091A001019621E08E39920728F4909319
S1130AE0A00180939F0106C08EE591E09093A00140
S1130AF080939F01E1ECF0E08081806280837894B0
S1130B0081E0089580E0089580919E010895909178
S1130B10A10181E0903408F480E00895CF93C82FB8
S1130B200E9487058130E1F38C2F0E94570580E0F5
S1130B3090E0CF9108950E940F0688F09F5798F097
S1130B40B92F9927B751B0F0E1F0660F771F881FCE
S1130B50991F1AF0BA95C9F714C0B13091F00E94E8
S1130B602906B1E008950C942906672F782F882769
S1130B70B85F39F0B93FCCF3869577956795B3950F
S1130B80D9F73EF490958095709561957F4F8F4F7E
S1130B909F4F0895E89409C097FB3EF49095809583
S1130BA0709561957F4F8F4F9F4F9923A9F0F92F2F
S1130BB096E9BB279395F695879577956795B795AD
S1130BC0F111F8CFFAF4BB0F11F460FF1BC06F5F93
S1130BD07F4F8F4F9F4F16C0882311F096E911C0A5
S1130BE0772321F09EE8872F762F05C0662371F0C6
S1130BF096E8862F70E060E02AF09A95660F771FDA
S1130C00881FDAF7880F9695879597F9089557FD09
S1130C109058440F551F59F05F3F71F04795880F66
S1130C2097FB991F61F09F3F79F0879508951216FD
S1130C3013061406551FF2CF4695F1DF08C01616A9
S1130C4017061806991FF1CF86957105610508945A
S1130C500895E894BB2766277727CB0197F9089571
S1130C600E9443060C94B4060E94A60638F00E9423
S1130C70AD0620F0952311F00C949D060C94A30668
S1130C8011240C942A060E94070670F3959FC1F361
S1130C90950F50E0551F629FF001729FBB27F00D26
S1130CA0B11D639FAA27F00DB11DAA1F649F66277B
S1130CB0B00DA11D661F829F2227B00DA11D621FCA
S1130CC0739FB00DA11D621F839FA00D611D221F84
S1130CD0749F3327A00D611D231F849F600D211D68
S1130CE0822F762F6A2F11249F5750409AF0F1F0EB
S1130CF088234AF0EE0FFF1FBB1F661F771F881F54
S1130D0091505040A9F79E3F510580F00C949D06E8
S1130D100C942A065F3FE4F3983ED4F386957795C6
S1130D206795B795F795E7959F5FC1F7FE2B880FF9
S1130D30911D9695879597F9089597F99F6780E88F
S1130D4070E060E008959FEF80EC089500240A9419
S1130D501616170618060906089500240A94121692
S1130D601306140605060895092E0394000C11F4C5
S1130D70882352F0BB0F40F4BF2B11F460FF04C072
S1130D806F5F7F4F8F4F9F4F0895A1E21A2EAA1BCA
S1130D90BB1BFD010DC0AA1FBB1FEE1FFF1FA21727
S1130DA0B307E407F50720F0A21BB30BE40BF50B24
S1130DB0661F771F881F991F1A9469F760957095AD
S1130DC0809590959B01AC01BD01CF010895A0E0F1
S1130DD0B0E0EDEEF6E00C94A1090F811885F8015E
S1130DE0838188608383AE01455F5F4F69857A851F
S1130DF0C8010E940207F8012381277F2383E4E0CE
S1130E000C94BD09ABE0B0E0E8E0F7E00C94930982
S1130E106C017B018A01FC0117821682838181FFA8
S1130E20CCC1CE0101963C01F6019381F70193FDFB
S1130E30859193FF81917F01882309F4BAC185329A
S1130E4039F493FD859193FF81917F01853229F4D3
S1130E50B60190E00E94F908E7CF912C212C312CA7
S1130E60FFE1F315D8F08B3279F038F4803279F061
S1130E708332A1F4232D20611DC08D3261F08033B3
S1130E8069F4232D216016C0832D8260382EE32D52
S1130E90E4603E2E2AC0F32DF8601DC037FC2DC03F
S1130EA020ED280F2A3040F08E32B9F436FC81C18F
S1130EB0232D2064322E19C036FE06C08AE0989E87
S1130EC0200D1124922E11C0EAE02E9E200D112433
S1130ED0222EF32DF0623F2E08C08C3621F4832D90
S1130EE08068382E02C0883641F4F70193FD85915D
S1130EF093FF81917F018111B3CF982F9F7D9554EA
S1130F00933028F40C5F1F4F9FE399830DC0833601
S1130F1031F0833771F0833509F059C021C0F801ED
S1130F20808189830E5F1F4F88248394912C530101
S1130F3013C02801F2E04F0E511CF801A080B180CB
S1130F4036FE03C0692D70E002C06FEF7FEFC5016C
S1130F500E94EE084C018201F32DFF773F2E16C04C
S1130F60280122E0420E511CF801A080B18036FE17
S1130F7003C0692D70E002C06FEF7FEFC5010E94CE
S1130F80E3084C01F32DF0683F2E820133FC1BC0B3
S1130F90822D90E088169906B0F4B60180E290E0C4
S1130FA00E94F9082A94F4CFF50137FC859137FEA5
S1130FB081915F01B60190E00E94F90821102A9402
S1130FC021E0821A91088114910471F7E8C08436F3
S1130FD011F0893641F5F80137FE07C0608171814F
S1130FE0828193810C5F1F4F08C060817181072E3D
S1130FF0000C880B990B0E5F1F4FF32DFF763F2ECD
S113100097FF09C090958095709561957F4F8F4F9C
S11310109F4FF0683F2E2AE030E0A3010E9435097B
S1131020882E861845C0853731F4232D2F7EB22EA5
S11310302AE030E025C0932D997FB92E8F36C1F078
S113104018F4883579F0B5C0803719F0883721F065
S1131050B0C0E92FE061BE2EB4FE0DC0FB2DF460DC
S1131060BF2E09C034FE0AC0292F2660B22E06C046
S113107028E030E005C020E130E002C020E132E0A9
S1131080F801B7FE07C060817181828193810C5F92
S11310901F4F06C06081718180E090E00E5F1F4F9A
S11310A0A3010E943509882E8618FB2DFF773F2E59
S11310B036FE0DC0232D2E7FA22E891458F434FE43
S11310C00BC032FC09C0832D8E7EA82E05C0B82C1F
S11310D0A32C03C0B82C01C0B92CA4FE0FC0FE0180
S11310E0E80DF11D8081803321F49A2D997EA92E7B
S11310F009C0A2FE06C0B394B39404C08A2D8678B6
S113110009F0B394A3FC11C0A0FE06C0B21488F485
S1131110280C922C9B180EC0B21460F4B60180E225
S113112090E00E94F908B394F7CFB21418F42B1886
S113113002C0982C212CA4FE10C0B60180E390E0DC
S11311400E94F908A2FE17C0A1FC03C088E790E042
S113115002C088E590E0B6010CC08A2D867859F06B
S1131160A1FE02C08BE201C080E2A7FC8DE2B601C1
S113117090E00E94F908891438F4B60180E390E005
S11311800E94F9089A94F7CF8A94F301E80DF11DAF
S11311908081B60190E00E94F9088110F5CF2220E9
S11311A009F442CEB60180E290E00E94F9082A9444
S11311B0F6CFF6018681978102C08FEF9FEF2B96C1
S11311C0E2E10C94AF09FC010590615070400110FC
S11311D0D8F7809590958E0F9F1F0895FC0161505C
S11311E0704001900110D8F7809590958E0F9F1F45
S11311F008950F931F93CF93DF93FB01238121FD68
S113120003C08FEF9FEF2CC022FF16C04681578189
S1131210248135814217530744F4A081B1819D0193
S11312202F5F3F4F318320838C93268137812F5F3B
S11312303F4F3783268314C08B01EC01FB010084EC
S1131240F185E02D0995892BE1F6D80116968D914B
S11312509C911797019617969C938E931697CE019F
S1131260DF91CF911F910F910895FA01AA27283099
S113127051F1203181F1E8946F936E7F6E5F7F4F5F
S11312808F4F9F4FAF4FB1E03ED0B4E03CD0670FDB
S1131290781F891F9A1FA11D680F791F8A1F911D2E
S11312A0A11D6A0F711D811D911DA11D20D009F47E
S11312B068943F912AE0269F11243019305D3193C0
S11312C0DEF6CF010895462F4770405D4193B3E0A9
S11312D00FD0C9F7F6CF462F4F70405D4A3318F050
S11312E0495D31FD4052419302D0A9F7EACFB4E001
S11312F0A6959795879577956795BA95C9F70097B9
S11313006105710508959B01AC010A2E0694579559
S1131310479537952795BA95C9F7620F731F841FB0
S1131320951FA01D08952F923F924F925F926F9246
S11313307F928F929F92AF92BF92CF92DF92EF9261
S1131340FF920F931F93CF93DF93CDB7DEB7CA1BE2
S1131350DB0B0FB6F894DEBF0FBECDBF09942A880D
S1131360398848885F846E847D848C849B84AA84B5
S1131370B984C884DF80EE80FD800C811B81AA8142
S1131380B981CE0FD11D0FB6F894DEBF0FBECDBF0D
S10B1390ED010895F894FFCF6C
S1131398020100000003000000008E054F05000054
S9030000FC
