S010000052616E67653332382E737265638A
S11300000C94F6000C9413010C9413010C9413013A
S11300100C9413010C9413010C9413010C9413010C
S11300200C9413010C9413010C9439010C946B017E
S11300300C947E010C9415010C9413010C9413017F
S11300400C9413010C9413010C9458030C9419038D
S11300500C9413010C9413010C9413010C941301CC
S11300600C9413010C941301496E76616C6964203D
S1130070636F6D6D616E6421205072657373202708
S11300805427206F722027742720746F207472699C
S1130090676765722E0A0D000A0D00446973746166
S11300A06E636520697320746F6F20636C6F736572
S11300B020746F2074686520646F6F722E20446F03
S11300C06F722077696C6C2072656D61696E206354
S11300D06C6F7365642E0A0D0043616C63756C610B
S11300E07465642044697374616E63653A202564A1
S11300F020636D0A0D0044697374616E6365206941
S113010073206F7665722074686520313030636DBA
S1130110207468726573686F6C642E20446F6F720C
S11301202077696C6C2072656D61696E20636C6FF9
S11301307365642E0A0D004E6F206563686F20643A
S1130140657465637465642120436865636B207717
S11301506972696E67206F722073656E736F722E99
S11301600A0D005261772054696D65722056616CE6
S11301707565733A204543484F48696768203D20B8
S113018025642C204543484F4C6F77203D2025643F
S11301902C204D4950203D2025640A0D00547269DD
S11301A067676572696E672053656E736F722E2E72
S11301B02E0A0D000A0D0053797374656D20526583
S11301C06164792E20507265737320275427206F41
S11301D0722027742720746F2074726967676572B0
S11301E02073656E736F722E0A0D000011241FBEFA
S11301F0CFEFD8E0DEBFCDBF11E0A0E0B1E0E6E58F
S1130200F0E102C005900D92A031B107D9F721E0C9
S1130210A0E1B1E001C01D92A13AB207E1F70E944A
S1130220E3010C9429080C9400001F920F920FB65E
S11302300F9211248F939F9380911001909111013B
S1130240029738F010926F00109281008FEF809324
S11302501201809110019091110101969093110166
S1130260809310019F918F910F900FBE0F901F905C
S113027018951F920F920FB60F9211248F939F938C
S1130280EF93FF938091810086FF09C0E1E8F0E0DD
S113029080818260808380818F7B808313C0809182
S11302A084009091850090931401809313018091B0
S11302B0100190911101909316018093150184E02F
S11302C080936F00FF91EF919F918F910F900FBEDC
S11302D00F901F9018951F920F920FB60F92112432
S11302E08F935F9881E280936F0080E48093810014
S11302F08F910F900FBE0F901F9018951F920F9221
S11303000FB60F92112410926F0010928100109278
S113031012010F900FBE0F901F901895809112013B
S113032081111BC081E080931201579A50985F9805
S11303305F9A109285001092840084E190E090937B
S11303408900809388008FEF86BB109280008AE03A
S11303508093810082E080936F000895809115015D
S113036090911601892B31F480911301909114011D
S1130370892B31F1609115017091160120911301BF
S113038030911401CB01A0E0B0E0DC01992788276B
S1130390BC01CD01620F731F811D911D0E942B04AE
S11303A020E030E040E05FE30E948F040E94FA0303
S11303B02AE330E040E050E00E942405C90108959A
S11303C087EE93E0089587E690E00E94F302789424
S11303D087EB91E09F938F93809101018F9380919C
S11303E000018F930E944605219A229A2A9A0F901F
S11303F00F900F900F900F2EFDE9AF2EF1E0BF2E5E
S1130400F02D0F2EF3E6CF2EF1E0DF2EF02D0F2E80
S1130410F8E9EF2EF0E0FF2EF02D0F2EF9ED8F2EE0
S1130420F0E09F2EF02D0F2EF6EF6F2EF0E07F2ED2
S1130430F02D0F2EF7E34F2EF1E05F2EF02D08E69E
S113044010E0C4EBD1E00E94E3038823E1F30E94AF
S11304508C038435A1F0843791F08D3009F0B3C05A
S1130460DF93CF93809101018F93809100018F934B
S11304700E9446050F900F900F900F90E4CFBF920B
S1130480AF92809101018F93809100018F930E941C
S113049046050E948E010F900F900F900F9080914F
S11304A012018130E1F34091120120911301309146
S11304B0140180911501909116011F924F933F935F
S11304C02F939F938F93DF92CF92809101018F930B
S11304D0809100018F930E944605809115019091AF
S11304E016012DB73EB7265F3F4F0FB6F8943EBFB7
S11304F00FBE2DBF892BB1F480911301909114018B
S1130500892B81F45F924F92809101018F938091A6
S113051000018F930E9446052A9A0F900F900F9026
S11305200F9042C00E94AE011C018536910588F0EF
S11305307F926F92809101018F93809100018F933C
S11305400E9446052A9A29980F900F900F900F90B9
S11305502BC03F928F939F928F92809101018F9332
S1130560809100018F930E9446052A980F900F9066
S11305700F900F900F900F9082E02816310498F49A
S11305802BE930E03F932F93809101018F93809169
S113059000018F930E94460529982A9A0F900F9084
S11305A00F900F9001C0299AFF92EF928091010160
S11305B08F93809100018F930E9446050F900F90B6
S11305C00F900F9040CF1F930F93809101018F9351
S11305D0809100018F930E9446052A9A0F900F90F4
S11305E00F900F9030CF9F779093C5008093C400F5
S11305F088E98093C1008EE08093C200519A50989C
S11306008DE591E090931C0180931B0190939F01D1
S113061080939E018DE191E09093180180931701DE
S113062090931A01809319011092A00110929D01D8
S113063008951F920F920FB60F9211242F938F9348
S11306409F93EF93FF938091A001882339F1E09168
S11306501B01F0911C0180818093C60080911B01D5
S113066090911C01019621E08D39920728F4909312
S11306701C0180931B0106C08DE591E090931C0141
S113068080931B018091A00181508093A00181116E
S113069005C0E1ECF0E080818F7D8083FF91EF91D4
S11306A09F918F912F910F900FBE0F901F901895CF
S11306B01F920F920FB60F9211242F938F939F9333
S11306C0EF93FF938091C600E0911901F0911A0114
S11306D0808380919D018F5F80939D01809119019A
S11306E090911A01019621E08D35920728F4909398
S11306F01A018093190106C08DE191E090931A01CB
S113070080931901FF91EF919F918F912F910F90F9
S11307100FBE0F901F90189580919D018823E1F0E2
S1130720F89480919D01815080939D01E09117017F
S1130730F0911801819191E0ED35F90728F4F093D7
S11307401801E093170106C02DE131E03093180140
S1130750209317017894089580E0089580919D0175
S11307608823E1F30E948C0390E008959091A00106
S1130770903438F5F8949091A0019F5F9093A00174
S1130780E0919E01F0919F01808380919E01909160
S11307909F01019621E08D39920728F490939F01DF
S11307A080939E0106C08DE591E090939F01809314
S11307B09E01E1ECF0E0808180628083789481E0A6
S11307C0089580E0089580919D0108959091A0017D
S11307D081E0903408F480E00895CF93C82F0E94FC
S11307E0E6038130E1F38C2F0E94B60380E090E0B1
S11307F0CF9108950E946E0488F09F5798F0B92F06
S11308009927B751B0F0E1F0660F771F881F991F41
S11308101AF0BA95C9F714C0B13091F00E94880457
S1130820B1E008950C948804672F782F8827B85F67
S113083039F0B93FCCF3869577956795B395D9F799
S11308403EF490958095709561957F4F8F4F9F4FA3
S11308500895E89409C097FB3EF4909580957095AF
S113086061957F4F8F4F9F4F9923A9F0F92F96E9F8
S1130870BB279395F695879577956795B795F1116D
S1130880F8CFFAF4BB0F11F460FF1BC06F5F7F4F0A
S11308908F4F9F4F16C0882311F096E911C077231C
S11308A021F09EE8872F762F05C0662371F096E825
S11308B0862F70E060E02AF09A95660F771F881FF4
S11308C0DAF7880F9695879597F9089557FD90580C
S11308D0440F551F59F05F3F71F04795880F97FB00
S11308E0991F61F09F3F79F08795089512161306BA
S11308F01406551FF2CF4695F1DF08C016161706E9
S11309001806991FF1CF869571056105089408951D
S1130910E894BB2766277727CB0197F908950E94AF
S1130920A2040C9413050E94050538F00E940C05DE
S113093020F0952311F00C94FC040C94020511246E
S11309400C9489040E94660470F3959FC1F3950F7B
S113095050E0551F629FF001729FBB27F00DB11D3F
S1130960639FAA27F00DB11DAA1F649F6627B00DCF
S1130970A11D661F829F2227B00DA11D621F739FB8
S1130980B00DA11D621F839FA00D611D221F749FC6
S11309903327A00D611D231F849F600D211D822F0D
S11309A0762F6A2F11249F5750409AF0F1F0882334
S11309B04AF0EE0FFF1FBB1F661F771F881F915061
S11309C05040A9F79E3F510580F00C94FC040C9410
S11309D089045F3FE4F3983ED4F386957795679551
S11309E0B795F795E7959F5FC1F7FE2B880F911D8B
S11309F09695879597F9089597F99F6780E870E031
S1130A0060E008959FEF80EC089500240A94161680
S1130A10170618060906089500240A9412161306E8
S1130A20140605060895092E0394000C11F4882376
S1130A3052F0BB0F40F4BF2B11F460FF04C06F5F92
S1130A407F4F8F4F9F4F0895A1E21A2EAA1BBB1B05
S1130A50FD010DC0AA1FBB1FEE1FFF1FA217B30786
S1130A60E407F50720F0A21BB30BE40BF50B661F9C
S1130A70771F881F991F1A9469F760957095809560
S1130A8090959B01AC01BD01CF010895A0E0B0E0B9
S1130A90ECE4F5E00C9400080F811885F8018381DB
S1130AA088608383AE01455F5F4F69857A85C8019D
S1130AB00E946105F8012381277F2383E4E00C94DD
S1130AC01C08ABE0B0E0E7E6F5E00C94F2076C013B
S1130AD07B018A01FC0117821682838181FFCCC1CC
S1130AE0CE0101963C01F6019381F70193FD8591B6
S1130AF093FF81917F01882309F4BAC1853239F4C7
S1130B0093FD859193FF81917F01853229F4B6018C
S1130B1090E00E945807E7CF912C212C312CFFE163
S1130B20F315D8F08B3279F038F4803279F08332CF
S1130B30A1F4232D20611DC08D3261F0803369F44E
S1130B40232D216016C0832D8260382EE32DE460AE
S1130B503E2E2AC0F32DF8601DC037FC2DC020EDB9
S1130B60280F2A3040F08E32B9F436FC81C1232D8F
S1130B702064322E19C036FE06C08AE0989E200DED
S1130B801124922E11C0EAE02E9E200D1124222E53
S1130B90F32DF0623F2E08C08C3621F4832D80683B
S1130BA0382E02C0883641F4F70193FD859193FFF6
S1130BB081917F018111B3CF982F9F7D95549330FC
S1130BC028F40C5F1F4F9FE399830DC0833631F0E7
S1130BD0833771F0833509F059C021C0F801808151
S1130BE089830E5F1F4F88248394912C530113C073
S1130BF02801F2E04F0E511CF801A080B18036FEAE
S1130C0003C0692D70E002C06FEF7FEFC5010E9441
S1130C104D074C018201F32DFF773F2E16C02801AA
S1130C2022E0420E511CF801A080B18036FE03C0C0
S1130C30692D70E002C06FEF7FEFC5010E9442078B
S1130C404C01F32DF0683F2E820133FC1BC0822D32
S1130C5090E088169906B0F4B60180E290E00E9414
S1130C6058072A94F4CFF50137FC859137FE81911A
S1130C705F01B60190E00E94580721102A9421E0F8
S1130C80821A91088114910471F7E8C0843611F036
S1130C90893641F5F80137FE07C060817181828190
S1130CA093810C5F1F4F08C060817181072E000C77
S1130CB0880B990B0E5F1F4FF32DFF763F2E97FF86
S1130CC009C090958095709561957F4F8F4F9F4F88
S1130CD0F0683F2E2AE030E0A3010E949407882E9A
S1130CE0861845C0853731F4232D2F7EB22E2AE095
S1130CF030E025C0932D997FB92E8F36C1F018F4BA
S1130D00883579F0B5C0803719F0883721F0B0C044
S1130D10E92FE061BE2EB4FE0DC0FB2DF460BF2EA2
S1130D2009C034FE0AC0292F2660B22E06C028E06E
S1130D3030E005C020E130E002C020E132E0F801FB
S1130D40B7FE07C060817181828193810C5F1F4F60
S1130D5006C06081718180E090E00E5F1F4FA301A7
S1130D600E949407882E8618FB2DFF773F2E36FEAF
S1130D700DC0232D2E7FA22E891458F434FE0BC0EF
S1130D8032FC09C0832D8E7EA82E05C0B82CA32C5E
S1130D9003C0B82C01C0B92CA4FE0FC0FE01E80D9D
S1130DA0F11D8081803321F49A2D997EA92E09C0EA
S1130DB0A2FE06C0B394B39404C08A2D867809F0C9
S1130DC0B394A3FC11C0A0FE06C0B21488F4280C8E
S1130DD0922C9B180EC0B21460F4B60180E290E02D
S1130DE00E945807B394F7CFB21418F42B1802C01A
S1130DF0982C212CA4FE10C0B60180E390E00E9440
S1130E005807A2FE17C0A1FC03C088E790E002C007
S1130E1088E590E0B6010CC08A2D867859F0A1FED1
S1130E2002C08BE201C080E2A7FC8DE2B60190E033
S1130E300E945807891438F4B60180E390E00E94B8
S1130E4058079A94F7CF8A94F301E80DF11D808135
S1130E50B60190E00E9458078110F5CF222009F4D2
S1130E6042CEB60180E290E00E9458072A94F6CF61
S1130E70F6018681978102C08FEF9FEF2B96E2E106
S1130E800C940E08FC010590615070400110D8F7D5
S1130E90809590958E0F9F1F0895FC0161507040BE
S1130EA001900110D8F7809590958E0F9F1F08959B
S1130EB00F931F93CF93DF93FB01238121FD03C085
S1130EC08FEF9FEF2CC022FF16C0468157812481EB
S1130ED035814217530744F4A081B1819D012F5FEE
S1130EE03F4F318320838C93268137812F5F3F4F7F
S1130EF03783268314C08B01EC01FB010084F18548
S1130F00E02D0995892BE1F6D80116968D919C91D7
S1130F101797019617969C938E931697CE01DF919F
S1130F20CF911F910F910895FA01AA27283051F10A
S1130F30203181F1E8946F936E7F6E5F7F4F8F4F06
S1130F409F4FAF4FB1E03ED0B4E03CD0670F781F65
S1130F50891F9A1FA11D680F791F8A1F911DA11D4A
S1130F606A0F711D811D911DA11D20D009F4689483
S1130F703F912AE0269F11243019305D3193DEF62B
S1130F80CF010895462F4770405D4193B3E00FD0E1
S1130F90C9F7F6CF462F4F70405D4A3318F0495DCC
S1130FA031FD4052419302D0A9F7EACFB4E0A695AF
S1130FB09795879577956795BA95C9F700976105D1
S1130FC0710508959B01AC010A2E06945795479527
S1130FD037952795BA95C9F7620F731F841F951F1C
S1130FE0A01D08952F923F924F925F926F927F922D
S1130FF08F929F92AF92BF92CF92DF92EF92FF9225
S11310000F931F93CF93DF93CDB7DEB7CA1BDB0BD0
S11310100FB6F894DEBF0FBECDBF09942A88398875
S113102048885F846E847D848C849B84AA84B9847C
S1131030C884DF80EE80FD800C811B81AA81B98188
S1131040CE0FD11D0FB6F894DEBF0FBECDBFED019C
S10910500895F894FFCF9F
S113105602010000000300000000ED03AE030000DF
S9030000FC
