:100000000C9434000C9451000C9451000C94510049
:100010000C9451000C9451000C9451000C9451001C
:100020000C9451000C9451000C9451000C9451000C
:100030000C9451000C9451000C94BE000C9451008F
:100040000C9451000C9451000C948B010C944E01B3
:100050000C9451000C9451000C9451000C945100DC
:100060000C9451000C94510011241FBECFEFD8E026
:10007000DEBFCDBF11E0A0E0B1E0E2ECF3E002C0F2
:1000800005900D92A030B107D9F721E0A0E0B1E0D2
:1000900001C01D92AB38B207E1F70E94F5000C9445
:1000A000DF010C940000E0E8F0E08081826880834A
:1000B000E1E8F0E080818A61808380E49CE99093AC
:1000C00087008093860084B1826084B908958A573E
:1000D000944F909389008093880008958AB1877F18
:1000E0008AB98AB18F7E8AB98BB188608BB98BB19E
:1000F00080618BB9089588EC90E00E9467002FEF33
:1001000088EF95E1215080409040E1F700C0000069
:1001100080E090E00E946700089588E39FEF0E94CE
:1001200067002FEF8CEB9FE1215080409040E1F77A
:1001300000C0000080E090E00E946700089580E425
:1001400080937C0087E880937A000895EAE7F0E0E6
:1001500080818064808380917A0086FDFCCF8091CD
:10016000780090917900089582E084BD95E095BD76
:100170009CE997BD80936E00789408951F920F922A
:100180000FB60F9211248F9381E0809300018F911D
:100190000F900FBE0F901F901895E0EBF0E080815C
:1001A00083648083E1EBF0E08081826080838AB1A8
:1001B00080648AB9089582959295907F9827807F70
:1001C00098279C0140E050E060E074E284EF90E00A
:1001D0000E94BD01215031092093B3000895E0EB46
:1001E000F0E080818F7B808308950E9453000E94FD
:1001F0006E000E949F000E94B4000E94CD00C0E0EB
:10020000D0E00E94A600843F21E0920760F44B9961
:100210000AC03FEF41EE24E0315040402040E1F77A
:1002200000C0000029B1853F914058F34B9920C090
:100230004FEF81EE94E0415080409040E1F700C0E4
:1002400000004B9915C0209799F40E947B0088EE1E
:1002500093E00E94DB002FEF33ED40E3215030406C
:100260004040E1F700C000000E94EF00C1E0D0E094
:100270004C99C7CF8FEF91EE24E081509040204001
:10028000E1F700C000004C99BCCFC130D10509F0A6
:10029000B8CF0E948D00C0E0D0E0B3CF1F920F9284
:1002A0000FB60F9211242F938F939F93EF93FF9389
:1002B00080918A01882329F1E0910501F0910601DE
:1002C00080818093C600809105019091060101967E
:1002D00090930601809305018758914030F087E4A0
:1002E00091E0909306018093050180918A018150ED
:1002F00080938A01811105C0E1ECF0E080818F7D5F
:100300008083FF91EF919F918F912F910F900FBE5E
:100310000F901F9018951F920F920FB60F921124F5
:100320002F938F939F93EF93FF938091C600E0915B
:100330000301F09104018083809187018F5F809396
:10034000870180910301909104010196909304012B
:10035000809303018754914030F087E091E09093BF
:10036000040180930301FF91EF919F918F912F9151
:100370000F900FBE0F901F901895A1E21A2EAA1B86
:10038000BB1BFD010DC0AA1FBB1FEE1FFF1FA21745
:10039000B307E407F50720F0A21BB30BE40BF50B42
:1003A000661F771F881F991F1A9469F760957095CB
:1003B000809590959B01AC01BD01CF010895F89403
:0203C000FFCF6D
:00000001FF
